{
  "contractName": "AuctionFactory",
  "abi": [
    {
      "inputs": [],
      "stateMutability": "nonpayable",
      "type": "constructor"
    },
    {
      "anonymous": false,
      "inputs": [
        {
          "indexed": false,
          "internalType": "address",
          "name": "auctionContract",
          "type": "address"
        },
        {
          "indexed": false,
          "internalType": "address",
          "name": "owner",
          "type": "address"
        },
        {
          "indexed": false,
          "internalType": "uint256",
          "name": "numAuctions",
          "type": "uint256"
        },
        {
          "indexed": false,
          "internalType": "address[]",
          "name": "allAuctions",
          "type": "address[]"
        }
      ],
      "name": "AuctionCreated",
      "type": "event"
    },
    {
      "inputs": [
        {
          "internalType": "uint256",
          "name": "",
          "type": "uint256"
        }
      ],
      "name": "auctions",
      "outputs": [
        {
          "internalType": "address",
          "name": "",
          "type": "address"
        }
      ],
      "stateMutability": "view",
      "type": "function",
      "constant": true
    },
    {
      "inputs": [
        {
          "internalType": "uint256",
          "name": "bidIncrement",
          "type": "uint256"
        },
        {
          "internalType": "uint256",
          "name": "startBlock",
          "type": "uint256"
        },
        {
          "internalType": "uint256",
          "name": "endBlock",
          "type": "uint256"
        },
        {
          "internalType": "string",
          "name": "ipfsHash",
          "type": "string"
        }
      ],
      "name": "createAuction",
      "outputs": [],
      "stateMutability": "nonpayable",
      "type": "function"
    },
    {
      "inputs": [],
      "name": "allAuctions",
      "outputs": [
        {
          "internalType": "address[]",
          "name": "",
          "type": "address[]"
        }
      ],
      "stateMutability": "view",
      "type": "function",
      "constant": true
    }
  ],
  "bytecode": "0x608060405234801561001057600080fd5b50611fa7806100206000396000f3fe60806040523480156200001157600080fd5b5060043610620000465760003560e01c806315cda1af146200004b5780631bbcd4a5146200006b578063571a26a0146200008d575b600080fd5b62000069600480360381019062000063919062000446565b620000c3565b005b62000075620001b7565b604051620000849190620005d9565b60405180910390f35b620000ab6004803603810190620000a59190620005fd565b62000247565b604051620000ba919062000640565b60405180910390f35b60003385858585604051620000d89062000287565b620000e8959493929190620006f7565b604051809103906000f08015801562000105573d6000803e3d6000fd5b5090506000819080600181540180825580915050600190039060005260206000200160009091909190916101000a81548173ffffffffffffffffffffffffffffffffffffffff021916908373ffffffffffffffffffffffffffffffffffffffff1602179055507f0d314047f0d1e39dbbd521f0844c35332083a15926b906540faa68e1a4262b6881336000805490506000604051620001a894939291906200085b565b60405180910390a15050505050565b606060008054806020026020016040519081016040528092919081815260200182805480156200023d57602002820191906000526020600020905b8160009054906101000a900473ffffffffffffffffffffffffffffffffffffffff1673ffffffffffffffffffffffffffffffffffffffff1681526020019060010190808311620001f2575b5050505050905090565b600081815481106200025857600080fd5b906000526020600020016000915054906101000a900473ffffffffffffffffffffffffffffffffffffffff1681565b6116c280620008b083390190565b6000604051905090565b600080fd5b600080fd5b6000819050919050565b620002be81620002a9565b8114620002ca57600080fd5b50565b600081359050620002de81620002b3565b92915050565b600080fd5b600080fd5b6000601f19601f8301169050919050565b7f4e487b7100000000000000000000000000000000000000000000000000000000600052604160045260246000fd5b6200033982620002ee565b810181811067ffffffffffffffff821117156200035b576200035a620002ff565b5b80604052505050565b60006200037062000295565b90506200037e82826200032e565b919050565b600067ffffffffffffffff821115620003a157620003a0620002ff565b5b620003ac82620002ee565b9050602081019050919050565b82818337600083830152505050565b6000620003df620003d98462000383565b62000364565b905082815260208101848484011115620003fe57620003fd620002e9565b5b6200040b848285620003b9565b509392505050565b600082601f8301126200042b576200042a620002e4565b5b81356200043d848260208601620003c8565b91505092915050565b600080600080608085870312156200046357620004626200029f565b5b60006200047387828801620002cd565b94505060206200048687828801620002cd565b93505060406200049987828801620002cd565b925050606085013567ffffffffffffffff811115620004bd57620004bc620002a4565b5b620004cb8782880162000413565b91505092959194509250565b600081519050919050565b600082825260208201905092915050565b6000819050602082019050919050565b600073ffffffffffffffffffffffffffffffffffffffff82169050919050565b6000620005308262000503565b9050919050565b620005428162000523565b82525050565b600062000556838362000537565b60208301905092915050565b6000602082019050919050565b60006200057c82620004d7565b620005888185620004e2565b93506200059583620004f3565b8060005b83811015620005cc578151620005b0888262000548565b9750620005bd8362000562565b92505060018101905062000599565b5085935050505092915050565b60006020820190508181036000830152620005f581846200056f565b905092915050565b6000602082840312156200061657620006156200029f565b5b60006200062684828501620002cd565b91505092915050565b6200063a8162000523565b82525050565b60006020820190506200065760008301846200062f565b92915050565b6200066881620002a9565b82525050565b600081519050919050565b600082825260208201905092915050565b60005b83811015620006aa5780820151818401526020810190506200068d565b60008484015250505050565b6000620006c3826200066e565b620006cf818562000679565b9350620006e18185602086016200068a565b620006ec81620002ee565b840191505092915050565b600060a0820190506200070e60008301886200062f565b6200071d60208301876200065d565b6200072c60408301866200065d565b6200073b60608301856200065d565b81810360808301526200074f8184620006b6565b90509695505050505050565b600081549050919050565b60008190508160005260206000209050919050565b60008160001c9050919050565b600073ffffffffffffffffffffffffffffffffffffffff82169050919050565b6000620007bf620007b9836200077b565b62000788565b9050919050565b6000620007d48254620007a8565b9050919050565b6000600182019050919050565b6000620007f5826200075b565b620008018185620004e2565b93506200080e8362000766565b8060005b838110156200084e576200082682620007c6565b62000832888262000548565b97506200083f83620007db565b92505060018101905062000812565b5085935050505092915050565b60006080820190506200087260008301876200062f565b6200088160208301866200062f565b6200089060408301856200065d565b8181036060830152620008a48184620007e8565b90509594505050505056fe60806040523480156200001157600080fd5b50604051620016c2380380620016c2833981810160405281019062000037919062000331565b8183106200004457600080fd5b438310156200005257600080fd5b600073ffffffffffffffffffffffffffffffffffffffff168573ffffffffffffffffffffffffffffffffffffffff16036200008c57600080fd5b846000806101000a81548173ffffffffffffffffffffffffffffffffffffffff021916908373ffffffffffffffffffffffffffffffffffffffff1602179055508360018190555082600281905550816003819055508060049081620000f2919062000619565b50505050505062000700565b6000604051905090565b600080fd5b600080fd5b600073ffffffffffffffffffffffffffffffffffffffff82169050919050565b60006200013f8262000112565b9050919050565b620001518162000132565b81146200015d57600080fd5b50565b600081519050620001718162000146565b92915050565b6000819050919050565b6200018c8162000177565b81146200019857600080fd5b50565b600081519050620001ac8162000181565b92915050565b600080fd5b600080fd5b6000601f19601f8301169050919050565b7f4e487b7100000000000000000000000000000000000000000000000000000000600052604160045260246000fd5b6200020782620001bc565b810181811067ffffffffffffffff82111715620002295762000228620001cd565b5b80604052505050565b60006200023e620000fe565b90506200024c8282620001fc565b919050565b600067ffffffffffffffff8211156200026f576200026e620001cd565b5b6200027a82620001bc565b9050602081019050919050565b60005b83811015620002a75780820151818401526020810190506200028a565b60008484015250505050565b6000620002ca620002c48462000251565b62000232565b905082815260208101848484011115620002e957620002e8620001b7565b5b620002f684828562000287565b509392505050565b600082601f830112620003165762000315620001b2565b5b815162000328848260208601620002b3565b91505092915050565b600080600080600060a0868803121562000350576200034f62000108565b5b6000620003608882890162000160565b955050602062000373888289016200019b565b945050604062000386888289016200019b565b935050606062000399888289016200019b565b925050608086015167ffffffffffffffff811115620003bd57620003bc6200010d565b5b620003cb88828901620002fe565b9150509295509295909350565b600081519050919050565b7f4e487b7100000000000000000000000000000000000000000000000000000000600052602260045260246000fd5b600060028204905060018216806200042b57607f821691505b602082108103620004415762000440620003e3565b5b50919050565b60008190508160005260206000209050919050565b60006020601f8301049050919050565b600082821b905092915050565b600060088302620004ab7fffffffffffffffffffffffffffffffffffffffffffffffffffffffffffffffff826200046c565b620004b786836200046c565b95508019841693508086168417925050509392505050565b6000819050919050565b6000620004fa620004f4620004ee8462000177565b620004cf565b62000177565b9050919050565b6000819050919050565b6200051683620004d9565b6200052e620005258262000501565b84845462000479565b825550505050565b600090565b6200054562000536565b620005528184846200050b565b505050565b5b818110156200057a576200056e6000826200053b565b60018101905062000558565b5050565b601f821115620005c957620005938162000447565b6200059e846200045c565b81016020851015620005ae578190505b620005c6620005bd856200045c565b83018262000557565b50505b505050565b600082821c905092915050565b6000620005ee60001984600802620005ce565b1980831691505092915050565b6000620006098383620005db565b9150826002028217905092915050565b6200062482620003d8565b67ffffffffffffffff81111562000640576200063f620001cd565b5b6200064c825462000412565b620006598282856200057e565b600060209050601f8311600181146200069157600084156200067c578287015190505b620006888582620005fb565b865550620006f8565b601f198416620006a18662000447565b60005b82811015620006cb57848901518255600182019150602085019450602081019050620006a4565b86831015620006eb5784890151620006e7601f891682620005db565b8355505b6001600288020188555050505b505050505050565b610fb280620007106000396000f3fe6080604052600436106100c25760003560e01c80638fa8b7901161007f578063c623674f11610059578063c623674f1461024a578063ce10cf8014610275578063ecfc7ecc146102b2578063f5b56c56146102d0576100c2565b80638fa8b790146101c957806391f90157146101f4578063b3cc167a1461021f576100c2565b8063083c6323146100c75780633ccfd60b146100f25780633f9942ff1461011d57806348cd4cb1146101485780634979440a146101735780638da5cb5b1461019e575b600080fd5b3480156100d357600080fd5b506100dc6102fb565b6040516100e99190610c3e565b60405180910390f35b3480156100fe57600080fd5b50610107610301565b6040516101149190610c74565b60405180910390f35b34801561012957600080fd5b506101326106c6565b60405161013f9190610c74565b60405180910390f35b34801561015457600080fd5b5061015d6106d9565b60405161016a9190610c3e565b60405180910390f35b34801561017f57600080fd5b506101886106df565b6040516101959190610c3e565b60405180910390f35b3480156101aa57600080fd5b506101b3610748565b6040516101c09190610cd0565b60405180910390f35b3480156101d557600080fd5b506101de61076c565b6040516101eb9190610c74565b60405180910390f35b34801561020057600080fd5b5061020961083e565b6040516102169190610cd0565b60405180910390f35b34801561022b57600080fd5b50610234610864565b6040516102419190610c3e565b60405180910390f35b34801561025657600080fd5b5061025f61086a565b60405161026c9190610d7b565b60405180910390f35b34801561028157600080fd5b5061029c60048036038101906102979190610dce565b6108f8565b6040516102a99190610c3e565b60405180910390f35b6102ba610910565b6040516102c79190610c74565b60405180910390f35b3480156102dc57600080fd5b506102e5610c03565b6040516102f29190610c3e565b60405180910390f35b60035481565b6000600354431080156103215750600560009054906101000a900460ff16155b1561032b57600080fd5b600080600560009054906101000a900460ff161561038d57339150600860008373ffffffffffffffffffffffffffffffffffffffff1673ffffffffffffffffffffffffffffffffffffffff1681526020019081526020016000205490506105e1565b60008054906101000a900473ffffffffffffffffffffffffffffffffffffffff1673ffffffffffffffffffffffffffffffffffffffff163373ffffffffffffffffffffffffffffffffffffffff160361042a57600760009054906101000a900473ffffffffffffffffffffffffffffffffffffffff16915060065490506001600960006101000a81548160ff0219169083151502179055506105e0565b600760009054906101000a900473ffffffffffffffffffffffffffffffffffffffff1673ffffffffffffffffffffffffffffffffffffffff163373ffffffffffffffffffffffffffffffffffffffff160361059957600760009054906101000a900473ffffffffffffffffffffffffffffffffffffffff169150600960009054906101000a900460ff16156105225760086000600760009054906101000a900473ffffffffffffffffffffffffffffffffffffffff1673ffffffffffffffffffffffffffffffffffffffff1673ffffffffffffffffffffffffffffffffffffffff168152602001908152602001600020549050610594565b60065460086000600760009054906101000a900473ffffffffffffffffffffffffffffffffffffffff1673ffffffffffffffffffffffffffffffffffffffff1673ffffffffffffffffffffffffffffffffffffffff168152602001908152602001600020546105919190610e2a565b90505b6105df565b339150600860008373ffffffffffffffffffffffffffffffffffffffff1673ffffffffffffffffffffffffffffffffffffffff1681526020019081526020016000205490505b5b5b600081036105ee57600080fd5b80600860008473ffffffffffffffffffffffffffffffffffffffff1673ffffffffffffffffffffffffffffffffffffffff168152602001908152602001600020600082825461063d9190610e2a565b925050819055503373ffffffffffffffffffffffffffffffffffffffff166108fc829081150290604051600060405180830381858888f1935050505061068257600080fd5b7f0ec497a8ae5b1ba29c60470ef651def995fac3deebbdcc56c47a4e5f51a4c2bd3383836040516106b593929190610e5e565b60405180910390a160019250505090565b600560009054906101000a900460ff1681565b60025481565b600060086000600760009054906101000a900473ffffffffffffffffffffffffffffffffffffffff1673ffffffffffffffffffffffffffffffffffffffff1673ffffffffffffffffffffffffffffffffffffffff16815260200190815260200160002054905090565b60008054906101000a900473ffffffffffffffffffffffffffffffffffffffff1681565b60008060009054906101000a900473ffffffffffffffffffffffffffffffffffffffff1673ffffffffffffffffffffffffffffffffffffffff163373ffffffffffffffffffffffffffffffffffffffff16146107c757600080fd5b6003544311156107d657600080fd5b600560009054906101000a900460ff16156107f057600080fd5b6001600560006101000a81548160ff0219169083151502179055507f462b6ca7f632601af1295aeb320851f50e8e630a309173f23535845ea4bfb3b960405160405180910390a16001905090565b600760009054906101000a900473ffffffffffffffffffffffffffffffffffffffff1681565b60015481565b6004805461087790610ec4565b80601f01602080910402602001604051908101604052809291908181526020018280546108a390610ec4565b80156108f05780601f106108c5576101008083540402835291602001916108f0565b820191906000526020600020905b8154815290600101906020018083116108d357829003601f168201915b505050505081565b60086020528060005260406000206000915090505481565b600060025443101561092157600080fd5b60035443111561093057600080fd5b600560009054906101000a900460ff161561094a57600080fd5b60008054906101000a900473ffffffffffffffffffffffffffffffffffffffff1673ffffffffffffffffffffffffffffffffffffffff163373ffffffffffffffffffffffffffffffffffffffff16036109a257600080fd5b600034036109af57600080fd5b600034600860003373ffffffffffffffffffffffffffffffffffffffff1673ffffffffffffffffffffffffffffffffffffffff168152602001908152602001600020546109fc9190610ef5565b90506006548111610a0c57600080fd5b600060086000600760009054906101000a900473ffffffffffffffffffffffffffffffffffffffff1673ffffffffffffffffffffffffffffffffffffffff1673ffffffffffffffffffffffffffffffffffffffff16815260200190815260200160002054905081600860003373ffffffffffffffffffffffffffffffffffffffff1673ffffffffffffffffffffffffffffffffffffffff16815260200190815260200160002081905550808211610adf57610ad460015483610ace9190610ef5565b82610c09565b600681905550610b97565b600760009054906101000a900473ffffffffffffffffffffffffffffffffffffffff1673ffffffffffffffffffffffffffffffffffffffff163373ffffffffffffffffffffffffffffffffffffffff1614610b935733600760006101000a81548173ffffffffffffffffffffffffffffffffffffffff021916908373ffffffffffffffffffffffffffffffffffffffff160217905550610b8c8260015483610b879190610ef5565b610c09565b6006819055505b8190505b7ff152f4ff5e488c55370a2d53925a55055228ebd8ec95bd0251bbb299e48786b03383600760009054906101000a900473ffffffffffffffffffffffffffffffffffffffff1684600654604051610bf2959493929190610f29565b60405180910390a160019250505090565b60065481565b600081831015610c1b57829050610c1f565b8190505b92915050565b6000819050919050565b610c3881610c25565b82525050565b6000602082019050610c536000830184610c2f565b92915050565b60008115159050919050565b610c6e81610c59565b82525050565b6000602082019050610c896000830184610c65565b92915050565b600073ffffffffffffffffffffffffffffffffffffffff82169050919050565b6000610cba82610c8f565b9050919050565b610cca81610caf565b82525050565b6000602082019050610ce56000830184610cc1565b92915050565b600081519050919050565b600082825260208201905092915050565b60005b83811015610d25578082015181840152602081019050610d0a565b60008484015250505050565b6000601f19601f8301169050919050565b6000610d4d82610ceb565b610d578185610cf6565b9350610d67818560208601610d07565b610d7081610d31565b840191505092915050565b60006020820190508181036000830152610d958184610d42565b905092915050565b600080fd5b610dab81610caf565b8114610db657600080fd5b50565b600081359050610dc881610da2565b92915050565b600060208284031215610de457610de3610d9d565b5b6000610df284828501610db9565b91505092915050565b7f4e487b7100000000000000000000000000000000000000000000000000000000600052601160045260246000fd5b6000610e3582610c25565b9150610e4083610c25565b9250828203905081811115610e5857610e57610dfb565b5b92915050565b6000606082019050610e736000830186610cc1565b610e806020830185610cc1565b610e8d6040830184610c2f565b949350505050565b7f4e487b7100000000000000000000000000000000000000000000000000000000600052602260045260246000fd5b60006002820490506001821680610edc57607f821691505b602082108103610eef57610eee610e95565b5b50919050565b6000610f0082610c25565b9150610f0b83610c25565b9250828201905080821115610f2357610f22610dfb565b5b92915050565b600060a082019050610f3e6000830188610cc1565b610f4b6020830187610c2f565b610f586040830186610cc1565b610f656060830185610c2f565b610f726080830184610c2f565b969550505050505056fea26469706673582212208abe8b0fa879975fbae8805a6efc844e656e6f8d4bbb39c92979cc606008075464736f6c63430008130033a26469706673582212201289c091c22a1699456ece33e2ef57d80b67c22ec34cf1ed49257b19b668183764736f6c63430008130033",
  "immutableReferences": {},
  "source": "// SPDX-License-Identifier: MIT \npragma solidity ^0.8.10;\n\nimport \"./Auction.sol\";\n\ncontract AuctionFactory {\n    address[] public auctions;\n\n    event AuctionCreated(address auctionContract, address owner, uint numAuctions, address[] allAuctions);\n\n    constructor() {}\n\n    function createAuction(uint bidIncrement, uint startBlock, uint endBlock, string memory ipfsHash) public {\n        Auction newAuction = new Auction(msg.sender, bidIncrement, startBlock, endBlock, ipfsHash);\n        auctions.push(address(newAuction));\n\n        emit AuctionCreated(address(newAuction), msg.sender, auctions.length, auctions);\n    }\n\n    function allAuctions() public view returns (address[] memory) {\n        return auctions;\n    }\n}",
  "sourcePath": "/Users/bnnx/Apps/Back-end/smart-auction-api/src/truffle/contracts/AuctionFactory.sol",
  "compiler": {
    "name": "solc",
    "version": "0.8.19+commit.7dd6d404.Emscripten.clang"
  },
  "schemaVersion": "3.4.13",
  "updatedAt": "2023-06-18T22:35:58.028Z",
  "networkType": "ethereum",
  "devdoc": {
    "kind": "dev",
    "methods": {},
    "version": 1
  },
  "userdoc": {
    "kind": "user",
    "methods": {},
    "version": 1
  }
}